:020000040000FA
:041188006EEC878CF6
:020000040000FA
:0412FC00EF655A4EF2
:020000040000FA
:041A7800E8B197AC8E
:020000040000FA
:041C540085DAB45128
:020000040000FA
:10A000000063001079A400007DA400007FA400007C
:10A0100081A4000083A4000085A4000000000000CB
:10A0200000000000000000000000000087A4000005
:10A0300089A40000000000008BA400008DA4000093
:10A040008FA4000069D500002BD600008FA400006B
:10A050008FA4000007D100009BD200003FD4000075
:10A060008FA400008FA400008FA400008FA4000024
:10A070008FA400008FA400008FA400008FA4000014
:10A080008FA400008FA400008FA400008FA4000004
:10A090008FA40000F7D600008FA400008FA400005A
:10A0A0008FA40000C7DB00008FA400008FA4000075
:10A0B0008FA400008FA400008FA400008FA40000D4
:10A0C0008FA400008FA400008FA4000000F002F80D
:10A0D00000F0A0F80AA090E8000C82448344AAF1A2
:10A0E0000107DA4501D100F095F8AFF2090EBAE8A0
:10A0F0000F0013F0010F18BFFB1A43F001031847BC
:10A10000BC770000DC7700000A4410F8014B14F023
:10A110000F0508BF10F8015B240908BF10F8014BB8
:10A120006D1E05D010F8013B6D1E01F8013BF9D101
:10A13000641E03D0641E01F8015BFBD19142E4D39D
:10A14000704700000023002400250026103A28BF95
:10A1500078C1FBD8520728BF30C148BF0B60704799
:10A160006E2904F0EB87702905F03581662907F028
:10A17000DE80652907F0DB80672907F0D880612938
:10A18000AFF3008003681B0A28BF41F080016929F2
:10A1900004F09887642904F09587752904F0928764
:10A1A0006F2905F0C380782905F00181E92905F0C0
:10A1B0005D80E42905F05A80F52905F05780EF29E4
:10A1C00005F0C080F82905F000810368DB0928BF8D
:10A1D00041F08001632905F0B484732905F0B98446
:10A1E000E32905F0C484F32905F0C98400207047F1
:10A1F0001FB505F0F1FC04000020002106F0D8F99D
:10A20000401C60600020002106F0BCF9E0601FBD2A
:10A2100010B510BDDFF80CD0FFF7EAFF00F01CFB13
:10A2200005F08CFD607F001003B4FFF7F1FF03BC65
:10A2300005F0CAFDD0F800D0D0F804F070B5864D16
:10A24000D5F88800854C6FEA10608007D5F80C01BE
:10A2500000F003000BD028B101283DD0022840D0E7
:10A2600003282BD1D5F804017D49C0B23EE000217E
:10A2700028B101280CD0022821D003281ED155F87E
:10A28000880FC0F3074228687649C0F30E0007E044
:10A2900055F8880FC0F3074228687349C0F30E00D1
:10A2A000401CA0FB01010023521C04F0ABFDEA6F2F
:10A2B0000023D2B2521C04F0A5FD606070BD55F8B9
:10A2C000880FC0F3074228680904C0F30E00401C41
:10A2D00041EA10410004E6E7D5F804016349C0B241
:10A2E00004E0D5F804014FF40041C0B2401CB1FBBA
:10A2F000F0F0E2E770B558482021C0F8A011D0F87E
:10A30000A0114906FBD50221C0F804110024C0F8B1
:10A31000A841C0F8AC41016844F23A02114301601F
:10A320000121C0F80C11524AC0F88420C0F88010F6
:10A33000AA22C0F88C205523C0F88C30D0F8885061
:10A340006D01FBD50325C0F88050C0F88C20C0F803
:10A350008C302326C0F8A460C0F8A010C0F8AC2050
:10A36000C0F8AC30D0F8A8104905FBD5C0F8A05013
:10A37000C0F8AC20C0F8AC303E49C0F8C410C0F8FA
:10A38000C841D0F88810354A6FEA11618907D0F8C2
:10A390000C1101F0030107D091B3012948D0022923
:10A3A0004BD0032952D13EE029B1012912D0022914
:10A3B00027D003294AD1D0F88810C1F30E01491CD7
:10A3C0004B00D0F88810C1F30741491CB3FBF1F1F1
:10A3D000234B0DE0D0F88810C1F30E01491C4B004F
:10A3E000D0F88810C1F30741491CB3FBF1F11F4BB2
:10A3F0005943D0F80431DBB25B1CB1FBF3F124E02C
:10A4000011E0D0F88810C1F30E01491C4B00D0F8C0
:10A410008810C1F30741491CB3FBF1F1CB03D0F81D
:10A420000411C9B20EE0D0F804110D4BC9B209E015
:10A43000D0F804110D4BC9B204E0D0F804114FF468
:10A440000043C9B2491CB3FBF1F1116050F8C41FBD
:10A4500041F40041016070BD00C00F4000000010D9
:10A4600000093D0000127A0000366E01001BB700A3
:10A47000180001005EE2008005480047FEE7FEE7A5
:10A48000FEE7FEE7FEE7FEE7FEE7FEE7FEE7FEE7A4
:10A49000CDA000002DE9F041FD4D00242969FD48C3
:10A4A0000068091A642907D32969081A662803D2A3
:10A4B000F9A1002002F0D9FB2969FA4E3068091A87
:10A4C000322907D32969081A342803D2F6A10020BB
:10A4D00002F0CBFB28693168401A32281CD9F648B3
:10A4E00040F2DC53F54E0068F54FF64A98420ADD1B
:10A4F000716AB94207D91168142904DD782902DA92
:10A5000001246C7008E0984206DD706AB84203D9F5
:10A510001068782800DD02242046BDE8F0812DE98E
:10A52000F05FDB4F3869E8490968401AE74932288B
:10A5300002D94FF480600880E54E00240125B079EF
:10A54000C0F381003872B879012802D002281DD1E9
:10A5500034E0F079012818D0022816D0032814D04E
:10A56000042812D0387801280FD10220796903F02D
:10A5700066F9B879401CB8710220FC6103F0BFF99C
:10A580003862D4A1002002F070FB3C7038790128B9
:10A5900071D0022870D17879D14941F6583B4FF0FB
:10A5A0000A08012869D042F2283A4FF0100902281F
:10A5B0007ED003287DD004287CD112E1088806F0E3
:10A5C00061FD4FF0894106F03DFEF96906F0BCFCE3
:10A5D00006F08EFCC34AC44B06F0A2FA05F0FEFF5B
:10A5E000F86106F013FD396A0844C04938628842B0
:10A5F00002D3BF49884200D93962B889DFF8C082E6
:10A60000DFF8F092DFF8F0A2C8F100080F281ED39F
:10A61000396A01EB080006F070FA00224B4606F09A
:10A620007FFA0022534606F0B3F806F039FA0146E5
:10A63000A0F57A604FF49672B0FBF2F010F0FF00D4
:10A64000B87000D1BD70022003F0F9F8BC819C48BD
:10A65000396A814204D10021022003F0F0F8BD7173
:10A66000B889401CB8813878012807D0B07910F03B
:10A67000300F2AD038E03FE03CE055E000210220D6
:10A6800003F0DDF8BD71BC709CA1002002F0EDFA72
:10A69000396A01EB080006F030FA00224B4606F05A
:10A6A0003FFA0022534606F073F806F0F9F902E08B
:10A6B00052E076E06AE07969884215D078617448A2
:10A6C0000421143002F051FA0EE0F279012A05D08B
:10A6D000022A03D0032A01D0042A05D1FC71BD71DE
:10A6E00089A1002002F0C1FA3C70FFF7D3FE0228D6
:10A6F00000D17C70BDE8F09F78780028FAD1B0795D
:10A7000010F0300FF6D1F079012805D0022803D0DF
:10A71000032801D00428EDD10021022003F08FF896
:10A720003879401C3871E5E74869014606F0BEFCFF
:10A73000B0F17E5F06DB5946022003F080F878799D
:10A74000401C3AE03869B969401A642855D900219B
:10A75000022003F074F817E04869014606F0A6FCF1
:10A760006B49884207DB5146022003F068F878798C
:10A77000401C787130E06749884208DC00210220E3
:10A7800003F05DF8042078713869B86135E0386904
:10A79000B969401A642830D95946022003F04FF8AD
:10A7A0000CE04869014606F081FC5B4988420ADA00
:10A7B0005946022003F043F8022078713869B861E5
:10A7C00087F8028019E03869B969401A642814D9F9
:10A7D0005146022003F033F83869B86187F80290D7
:10A7E0000BE03869B969401A642806D900210220B3
:10A7F00003F025F83869B8617D71F27947A100202E
:10A8000002F033FAFFF746FE01280DD0B079C0F30D
:10A810000110012808D0F079012884D00228FCD04A
:10A820000328FAD00428F8D0F2793FA1002002F0E2
:10A830001CFA0021022003F002F83D717D71BC700A
:10A8400058E72748002141618161C1610160416091
:10A850008160C160016170470024FFF74BFDFFF785
:10A86000EDFC02F01DFF02F0ABFF02F039FE02F03A
:10A87000EFFB03F0A9F902F083FE02F0B5FE02F04F
:10A88000E0FE4FF47A7002F04BFE02F05DFE55E000
:10A890000C000010E800001048324C204F55540DB9
:10A8A0000A0A0A00E40000105A4552494F204F5549
:10A8B000540D0A0A0A0000007800001000800140D0
:10A8C00098B101006C0000106800001052000010E8
:10A8D0007000001073746172742070656E73610093
:10A8E000F01300106BDFB0F60D6BBF3F2830020095
:10A8F00000EE02000088C34080C6F34073746F709E
:10A900002070656E736100006469723A256400000E
:10A91000000010410AD7233F48E1FA406469723AC7
:10A9200025640D0A00000000636865636B20727582
:10A930006E6F75743A25640D0A00000018B12CA1E1
:10A94000002002F092F92DA1002002F08EF902F011
:10A950002FFE00F02FFCFFF774FF04212A4802F0BD
:10A9600047F9294D29A1143D00206A6902F07DF9BB
:10A97000686942F21171884202D341F65830686129
:10A98000264F002602F027FE0028FBD00520641C7D
:10A99000B4FBF0F100FB114018B90221002000F0D7
:10A9A000E8FFE87804280AD128691D490968401A97
:10A9B0000A2800D93E80388801F0B9F9EE70E878AD
:10A9C000401CE87000F01FFCFFF7A9FD6889411CDE
:10A9D0006981142806D16878012806D0012001F089
:10A9E000DCF96E8102F08BFDCCE70020F7E7000078
:10A9F0007764742072657365740D0A006D63752049
:10AA000072657365740D0A0020000010675F50576F
:10AA10004D5F5345543A256400000000D4000010F7
:10AA2000D800001010B500230122C2548B545B1CC7
:10AA3000DBB2140601D51B2400E0002484EA4204A2
:10AA40005440E2B2012AF0D1017880F8FF1010BD25
:10AA500070B50024F84D07E006D069682A68095DE2
:10AA6000C1F1FF01515C00E0002181F06303042289
:10AA70004E0046EAD111C9B24B40521E12F0FF02FD
:10AA8000F6D10355641CE4B2002CE5D170BD10B5BD
:10AA900000231A46845C9C4201D1CA54FF22521CF6
:10AAA00012F0FF02F6D15B1C13F0FF03F2D110BDD0
:10AAB00001784278027082784270C2788270C170E8
:10AAC000704704210278130601D51B2300E0002300
:10AAD00083EA4202491E00F8012B11F0FF01F1D177
:10AAE0007047F0B5044641788078237881EA000CFD
:10AAF0001E46E2787140434081EA00058CEA020C70
:10AB000083EA020781EA02062046FFF7DAFF20788F
:10AB1000617880EA010282EA0C0CA27851404F4031
:10AB2000E17848404A40454056402046FFF7C9FF7B
:10AB30002378A078E1784340607883EA0C0C4840A1
:10AB4000474045405E402046FFF7BBFF94F800E0D9
:10AB50006078E1788EEA000EA07848408EEA000E18
:10AB60008CEA0E0187EA0E02217086EA0E036270FB
:10AB700085EA0E05A370E570F0BD10B5AE4A037806
:10AB8000491E946811F0FF01E35C00F8013BF6D127
:10AB900010BD30B5A94B047811F8015B521E1C5D45
:10ABA0006C4000F8014B12F0FF02F4D130BD417B44
:10ABB000427A42734279427242784271417081789E
:10ABC000827A827081728179827B82718173C1788D
:10ABD000C279C270C27AC271C27BC272C17370473D
:10ABE00010B5037811F8014B521E634000F8013B89
:10ABF00012F0FF02F5D110BD11F8013B521E00F812
:10AC0000013B12F0FF02F7D170473CB504468CA01F
:10AC10001021006801908B48491E11F0FF0110F8C7
:10AC2000012B04F8012BF7D10422211F6846FFF7FE
:10AC3000E3FF1025280716D16846FFF739FF0421E6
:10AC40006846FFF79AFF042201A96846FFF7C8FF8C
:10AC50009DF80400010601D51B2100E0002181EAD6
:10AC600040008DF804000422A4F110016846FFF7AB
:10AC7000B7FF9DF8000004F8010B9DF8010004F8EF
:10AC8000010B9DF8020004F8020B2D1D9DF8030036
:10AC9000EDB204F8010CB02DCCD33CBD3CB504465C
:10ACA00067A00068019067482030102110F8012B40
:10ACB000491E04F8012B11F0FF01F7D10422211FD6
:10ACC0006846FFF799FF1025280716D16846FFF759
:10ACD000EFFE04216846FFF750FF042201A96846F1
:10ACE000FFF77EFF9DF80400010601D51B2100E05F
:10ACF000002181EA40008DF804000422A4F1100133
:10AD00006846FFF76DFF9DF8000004F8010B9DF801
:10AD1000010004F8010B9DF8020004F8020B2D1D40
:10AD20009DF80300EDB204F8010CB02DCCD33CBD6E
:10AD30002DE9F0410E4680460927A0311022FFF789
:10AD40004FFF90364046FFF732FF10223146404613
:10AD5000FFF71FFF04250024103E08EB0400FFF757
:10AD6000C0FE6D1E04F1040415F0FF05E4B2F4D139
:10AD70007F1E17F0FF07E5D14046FFF718FF314669
:10AD80004046BDE8F041102203E770B52A4C2B4E37
:10AD90002D4DC4E9005628463146FFF743FE05F520
:10ADA0000070A060FFF754FE28462561FFF72DFFD5
:10ADB000E6603146A068BDE8704068E630B50D46F3
:10ADC0000446014610222148FFF716FF1A48016980
:10ADD0002046FFF7ADFF102229462046FFF700FF6F
:10ADE0002846BDE830401022184905E770B50C46EA
:10ADF00005460021164A08465054491C1029FBD329
:10AE0000002C17D00C4E102229461048FFF7F4FEF4
:10AE100028463169FFF78CFF10220D492846FFF7BD
:10AE2000DFFE102209490A48FFF7E6FE103C05F153
:10AE30001005E8D170BD000038000010800300103C
:10AE4000010000003A13010080020010800400108D
:10AE500080050010F0B5994F994D07F580760446AE
:10AE6000C5E9007638463146FFF7DCFD06F580700F
:10AE7000A860FFF7EDFD38462F61FFF70FFFEE608A
:10AE80003146A868FFF703FE0022104606F5007160
:10AE90008854521C102AFBD3102221468948FFF700
:10AEA000ABFE20462969FFF743FF2046BDE8F0408E
:10AEB0001022854994E610B5012200230A4200D0F1
:10AEC00043405206120E040601D51B2400E0002464
:10AED00084EA4000C0B2002AF0D1184610BDF0B597
:10AEE00000270D460646042415F8011B16F8010B31
:10AEF000FFF7E1FF7840641E074614F0FF04F3D12A
:10AF0000F0BD38B5054601467048FFF7E8FF6F4CC5
:10AF10008DF800002946E01CFFF7E1FF8DF80100E5
:10AF20002946A01CFFF7DBFF8DF802002946601CB4
:10AF3000FFF7D5FF8DF80300042269462846FFF786
:10AF40005BFE38BD417842794270427A4271427B61
:10AF5000427241738178827A827081728179827BB8
:10AF600082718173C17BC27AC273C279C272C278A4
:10AF7000C271C1707047F0B50E4684460927102291
:10AF8000FFF72EFE103610216046FFF7F6FD6046F3
:10AF9000FFF7D8FF042500240CEB0400FFF7B1FFF6
:10AFA0006D1E04F1040415F0FF05E4B2F4D1102283
:10AFB00031466046FFF714FE10367F1E17F0FF077C
:10AFC000E1D110216046FFF7D8FD6046FFF7BAFFD8
:10AFD0003146BDE8F0401022604601E670B5374DBD
:10AFE000374E05F580742846C6E900542146FFF720
:10AFF00019FD2046B460FFF72BFD28463561BDE8FA
:10B00000704002E630B50D4604461022FFF7E8FD19
:10B010002B4801692046FFF7AEFF21462846BDE8D0
:10B0200030401022E8E570B50C4605460021264A5E
:10B0300008465054491C1029FBD3002C12D0204E36
:10B04000102221492846FFF7CBFD28463169FFF73A
:10B0500092FF102229461C48FFF7CEFD103C05F157
:10B060001005EDD1E6E6F0B5144E154D06F58077E6
:10B070000446C5E9006739463046FFF7D3FC384639
:10B08000AF60FFF7E5FC30462E61FFF707FE0020BA
:10B090000D4A01461154401C1028FBD310220A49C6
:10B0A0002046FFF79DFD20462969FFF764FF2146F2
:10B0B000BDE8F040102204489EE500008002001028
:10B0C00038000010800400108005001032130100C9
:10B0D00010B5154C03E010F8013B5340E25C491EEB
:10B0E000F9D2104610BD30B50C4605000CD0022C2C
:10B0F0000AD97722611EFFF7EBFF291911F8011C0D
:10B10000814201D1012030BD002030BD30B50C4658
:10B11000050008D0022C06D97722611EFFF7D8FF60
:10B12000291901F8010C30BD7A13010010B558B18E
:10B130001F4C491E0BD310F8013B5340DBB234F8CF
:10B14000133083EA1222F4E74FF6FF7010BD104669
:10B1500010BD30B50C46050001D0022C02D84FF6C8
:10B16000FF7030BD43F29262A11EFFF7DFFF291985
:10B17000C2B211F8023C9A4206D111F8011CB1EB9F
:10B18000102F01D1012030BD002030BD30B50C465C
:10B1900005000BD0022C09D943F29262A11EFFF7E1
:10B1A000C5FF291901F8020D000A487030BD0000E2
:10B1B0007A14010010B586494FF40074224601F557
:10B1C000007000F061FE8349224601F5007000F036
:10B1D0005BFE8149224601F5007000F055FE7F4973
:10B1E000224601F5007000F04FFE7D49224601F530
:10B1F000007000F049FE22467A49BDE8104001F592
:10B20000007000F041BE2DE9F043C1B0764803F074
:10B2100068FDDFF8C081012784B20026734DA8F1D4
:10B22000100810E0704803F032FD014669481038FC
:10B2300000F02FFE38B12F60B8F80410D8F80C00D9
:10B2400000F05DFC2E60641EA4B2EBD2684803F0EF
:10B2500048FDDFF8848184B2A8F1100810E064484A
:10B2600003F015FD01465C48103800F012FE38B1BD
:10B270002F60B8F80410D8F80C0000F040FC2E60E5
:10B28000641EA4B2EBD25B4F38687968DFF8508156
:10B29000401A84B2B868A8F1100804404FF00209BF
:10B2A00014E07868D7E902120140401C78604C48ED
:10B2B000515C103800F0EDFD40B1C5F80090B8F8D1
:10B2C0000410D8F80C0000F01AFC2E60641EA4B222
:10B2D000E7D2494F38687968401A84B2B8680440A8
:10B2E0001DD0B0463F4E4FF00309103E641EA4B27D
:10B2F00015D37868D7E902120140401C78603948BC
:10B30000515C103800F0C5FD0028EFD0C5F8009062
:10B31000B188F06800F0DBFBC5F80080E6E7374E47
:10B3200030687168B468401A80B220406A46344B75
:10B33000F56809E0716804EA0107491C7160198821
:10B34000EF5D5754491C1980401E80B2F2D239E09B
:10B350009DF80000522803D19DF848000A2804D027
:10B36000491E1980002019882AE09DF835009DF8B3
:10B3700037403038303C9DF83960C0B2E5B29DF8B6
:10B380003840303E00EB4007F6B2C7EBC010303C0F
:10B3900006EBC000E4B26426754304EB840405EBBD
:10B3A00044042044174C493920801748198000680C
:10B3B00016490860D6E7141864781454401C80B20B
:10B3C0008842F8D319884929C2D241B0BDE8F08338
:10B3D00090050010A0070010B0090010C00B00106D
:10B3E000D00D0010E00F00103821001058000010A0
:10B3F0005423001090160010B0180010D01A00103E
:10B400004C000010D40000101C000010D8000010E8
:10B4100010B50446B0F80100C0F3090088422FD1EE
:10B4200004212046FFF772FEB4F80100C0F30901C1
:10B430002046FFF7ABFEFE48816801290CD00229A7
:10B4400015D003291CD1B4F80100C0F3090120462E
:10B45000BDE8104001F0BDBEB4F801002246C0F3C3
:10B460000903BDE81040F349F34803F0AEBCB4F85B
:10B470000100C0F309012046BDE8104001F001BE03
:10B4800010BD10B5017943794C090A465B0963F395
:10B490004711437963F3040164F34713017162F3C5
:10B4A00004034371017A21F0600141F080010172CF
:10B4B00010BD10B50446B0F80100C0F30900884281
:10B4C0002FD104212046FFF721FEB4F80100C0F37C
:10B4D00009012046FFF75AFED548816801290CD0A2
:10B4E000022915D003291CD1B4F80100C0F30901C9
:10B4F0002046BDE8104001F06CBEB4F801002246C1
:10B50000C0F30903BDE81040CA49CB4803F05DBC55
:10B51000B4F80100C0F309012046BDE8104001F075
:10B52000B0BD10BD2DE9F0410546002600F10B0429
:10B53000701C0F4660701021A01C01F09DFA01F0F4
:10B5400003FBC4F81200401C00D1FF260020C4F801
:10B5500016000120C4F81A00287A10F0600F13D0EA
:10B5600039462846FFF78DFFB5F801006FF3090053
:10B570002B30A5F801002670B5F80100C0F30901D1
:10B580002846BDE8F04143E7BDE8F08170B50446C8
:10B590000B30054600780026002816D1207A10F0DE
:10B5A000600F12D02046FFF76CFFB4F801006FF374
:10B5B00009000E30A4F801002E70B4F80100C0F3A9
:10B5C00009012046BDE8704022E770BD2DE9F04139
:10B5D000044600F10B06C07A00250F460028D3D19F
:10B5E00096489749406D896A411AD6F80100814210
:10B5F00001D2F1250CE08E494FF0FF32CA600022E3
:10B60000C1E90420FFF7C1FB01F031F900B9F325CE
:10B61000207A10F0600FB7D039462046FFF731FF8F
:10B62000B4F801006FF309001030A4F80100357080
:10B630004FF48070A6F80100B4F80100C0F30901CE
:10B640002046BDE8F041E3E69EE72DE9F047C77AE2
:10B650008A460646002500F10B040FB1012F64D184
:10B66000DFF8CC81D4F80110D8F80C00401C8142DE
:10B6700001D0F0253CE0B4F80590B9F5807F01D009
:10B68000F72535E0D8E90410814201D9F1252FE0F2
:10B690004A466C48E11D03F047FC012F03D149469F
:10B6A0006848FFF7A3FBDFF89891D8F81010B4F8BA
:10B6B0000520D9F8280047460844624901F0A6F859
:10B6C00000B1F425D9F828003969B4F805200844F8
:10B6D0005C4901F0E0F808B115B109E0F42507E094
:10B6E000B4F80500396908443861F868401CF8600E
:10B6F000307A10F0600F18D051463046FFF7C1FE87
:10B70000B6F801006FF309001230A6F801002570A9
:10B710001DB1D8F80C00C4F80100B6F80100C0F360
:10B7200009013046BDE8F04772E6BDE8F0872DE933
:10B73000FF41054600F10B060027C07A88463C46CB
:10B74000002834D1404800F0F5FB3D48816A384874
:10B7500042693D4800F03AFF69463B4800F08FFFE0
:10B7600068463119025D49788A4201D0F22703E028
:10B77000641CE4B2102CF4D3102C01D101F057F961
:10B78000287A10F0600F12D041462846FFF779FE64
:10B79000B5F801006FF309000E30A5F8010037700D
:10B7A000B5F80100C0F309012846FFF731FEBDE8F6
:10B7B000FF8170B5044600F10B05007B0E4608B111
:10B7C000012805D1D5F8020001F0B4FE01F0C2FE57
:10B7D000207A10F0600F14D031462046FFF751FE5A
:10B7E000B4F801006FF309000E30A4F80100002046
:10B7F0002870B4F80100C0F309012046BDE870408C
:10B8000006E670BD70B5054600F10B04007A10F035
:10B81000600F34D02846FFF734FEB5F801006FF30F
:10B8200009001330A5F801000020207060700DE0C1
:10B830005000001070250010004004406C170100FB
:10B84000F4160100F0110010C0140010F748006851
:10B85000C4F80200F64E012406EBC401887910B149
:10B86000487902F05FF8641CE4B2052CF4D3B5F813
:10B870000100C0F309012846BDE87040C8E570BD6D
:10B880002DE9F04104460B300F46054600261021F5
:10B89000401C01F0F6F800B9F426207A10F0600F91
:10B8A00018D039462046FFF7ECFD34F8010F10217F
:10B8B0006FF309001F3020802E7000206870A81CD4
:10B8C00001F0DAF834F80109C0F309012046BDE8B7
:10B8D000F0419DE558E6C07A022805D1D5490120FE
:10B8E0000870D54900200870D4A1002001F0BDB92E
:10B8F00000F10B01CE482022A83803F015BB70B52B
:10B90000D149D0F80B3000F10B020B62D0F80F30A8
:10B910004B62437923F01F0319334371CB4B5D6AAC
:10B92000CB4E00240123B54201D9137100E01471FC
:10B93000C84D2D78012D12D05371C74C2478D47086
:10B940008B60B0F80110C1F30901FFF761FDC34836
:10B950000268BDE87040C2A1002001F086B95471B0
:10B96000EBE7B0F80B10B8484180BC490968816129
:10B97000704730B587B00D4604461821684603F07D
:10B9800018FB55218DF800109DF8021021F0FC00E5
:10B990008DF80200A020ADF804009DF806200321D8
:10B9A00064F3871222F03F008DF806009DF807002F
:10B9B000A54A65F304008DF80700BDF801006FF398
:10B9C00009000C30ADF801009160C0F30901684630
:10B9D000FFF76FFD07B030BD2DE9F05F944E0124F5
:10B9E000DFF864927E3EDFF860A200F106084FF0B7
:10B9F000000B09F12809A6F10A0598F80000A042F9
:10BA00005BD18B49012001EBC40114228871884865
:10BA100004EB8401663800EB81074146384603F0A9
:10BA200083FA002006EB4001498826F81010401CDC
:10BA3000C0B20B28F6D3398926F81010002005EB88
:10BA40004001498825F81010401CC0B20428F6D3E4
:10BA5000B98825F81010C9F800B000205F464946A3
:10BA6000C9F804B036F910300A681A44C0F10B0363
:10BA70000A6036F913304A68401C1A44C0B24A6062
:10BA80000528EFD30868052290FBF2F008604868AB
:10BA9000514690FBF2F0C9F804000020CAF81C706F
:10BAA00035F91030CF69401C3B44C0B2CB6105284A
:10BAB000F6D393FBF2F0CAF81C00641CE4B2052C28
:10BAC0009BD3BDE8F09FB0F80100800A70472DE9D4
:10BAD000F04100240F46054606290FD3624E09E0C7
:10BAE00006EBC401A8888988884202D139462846D5
:10BAF0009047641C56F83420002AF1D144E52DE922
:10BB0000F04100240F4605460B2927D3287A010768
:10BB100024D1000622D4687900F01F011C2901D12C
:10BB2000420906D0C043C00603D0012901D0042930
:10BB300014D14D4E10360DE006EBC400A97A0379FE
:10BB4000994206D1697A4079814202D13946284624
:10BB50009047641C56F83420002AEDD114E500B556
:10BB6000A1B08021684603F024FA30490868002813
:10BB70003FD055208DF800009DF8020020F0FC0019
:10BB8000001D8DF802009DF8040020F01F001C30FD
:10BB900020F0E0008DF804009DF8050020F0E000A2
:10BBA00040F01F008DF805004FF6FF70ADF806005D
:10BBB0009DF8080020F06F0040F080008DF808002C
:10BBC00000208DF809000C228DF80A208DF80B005A
:10BBD0008DF80C000868CDF80D00BDF801006FF37A
:10BBE00009001330ADF80100C0F309016846FFF702
:10BBF0000FFC21B000BD00220123026003714171DE
:10BC00008271C27170472DE9F04104460079134EEC
:10BC100001282BD00025022836D003285ED1A07938
:10BC200000285BD0E079052859D254E008000010C4
:10BC3000981400100C000010340000106361726D45
:10BC400065720D0A000000005000001000800140E5
:10BC500080B501000D0000100E0000101C00001047
:10BC600066633A25640000007C160100607901F0EB
:10BC700091FE61790120FFF77CFE0220207130687F
:10BC8000206062796EA10AE0A079032760B1277174
:10BC9000E5716079002101F0D2FD62796BA1BDE808
:10BCA000F041002000F0E1BF20683168081A0A283E
:10BCB00014D9627933686AA1002000F0D6FFE079D8
:10BCC0000A2802D20120207105E02771E571607910
:10BCD000002101F0B4FDE079401CE07154E4E5710D
:10BCE00061790020FFF745FEF5E770B5614E00244D
:10BCF00006EBC40005462146FFF77DFF687901F099
:10BD000049FE641CE4B2052CF2D370BD5A4A59486E
:10BD100011781030012902D0022907D103E05549DA
:10BD2000097D032900D06EE70220107070477FB5AF
:10BD3000044655208DF800000C208DF801000025E8
:10BD40008DF8025004216846FFF7E0F907208DF8CE
:10BD5000040010208DF805008DF80640200AA4F597
:10BD600096648DF80700B4F5965F02D38DF80850FD
:10BD700002E001208DF808003F4988888DF809000D
:10BD8000401C88800C216846FFF700FA0C236A46A5
:10BD90003A493B4803F019F87FBD1FB500210091D7
:10BDA00001910291039155218DF800109DF8021028
:10BDB000314A21F0FC01091D8DF802109DF8041094
:10BDC00021F01F011C3121F0E0018DF804109DF8D5
:10BDD000051021F01F01C91C21F0E0018DF80510AC
:10BDE000D188ADF80610491CD1809DF8081021F0CB
:10BDF000EF018DF8081005218DF8091041218DF80B
:10BE00000A108DF80B00BDF8010004216FF3090042
:10BE10000E30ADF801006846FFF778F9BDF8010073
:10BE2000C0F309016846FFF7B1F9BDF801006A46A1
:10BE3000C0F309031349124802F0C7FF1FBD0000F9
:10BE40007365742069643A25640D0A00696E69742B
:10BE500020737563636573733A25640D0A000000EF
:10BE600077616974207469636B3A256420202564C6
:10BE70000D0A000098140010500000108C270010CC
:10BE800000400440A829001000230370C160C28054
:10BE9000704770B5044600780025052832D2DFE8E7
:10BEA00000F0030A12243300552940D1E268012032
:10BEB0006080117024E0A1806088E368421C628089
:10BEC000195402201CE0A08801F0030240EA02207D
:10BED000A0808A082272E288904213D86088E368C2
:10BEE000421C6280195403200AE06088E368421C07
:10BEF000628019540421E068FFF7F5F810B10420BE
:10BF0000207014E0257012E06088A288904203D26D
:10BF1000E368421C628019546088A188884206D177
:10BF20002570E068FFF715F908B1012070BD002009
:10BF300070BD0000002101604160FE498160FE4942
:10BF4000C160FC49C9430161FB49C9434161704774
:10BF500070B50024234608E0CD181B1DEE782D682F
:10BF600066F31F6540F82450641C9342F4D370BDFF
:10BF7000F0B50446C0B054F804CB402294E8E00089
:10BF80006846241FFFF7E4FF05EA060027EA0501DB
:10BF90000843EA49084400996144084405EB70618C
:10BFA00001EA050026EA01021043E54A1044019A1D
:10BFB0003A44104401EB305000EA010225EA000344
:10BFC0001A43E04B1A44029B33441A4400EBF2320A
:10BFD00002EA000321EA02063343DB4E3344039EA8
:10BFE00035442B4402EBB32505EA020320EA05069B
:10BFF0003343D64E3344049E3144194405EB7161FA
:10C0000001EA050322EA01063343D14E3344059E7B
:10C010003044184401EB305000EA010325EA0006E1
:10C020003343CC4E3344069E32441A4400EBF23381
:10C0300003EA000221EA03063243C74E3244079E58
:10C0400035442A4403EBB22202EA030520EA020641
:10C050003543C24E3544089E3144294402EB716198
:10C0600001EA020523EA01063543BD4E3544099E27
:10C070003044284401EB305000EA010522EA000672
:10C0800035430A9EA5F5244533444F3D2B4400EB30
:10C09000F33505EA000321EA05063343B14E334484
:10C0A0000B9E32441A4405EBB22303EA050220EA50
:10C0B00003063243AC4E32440C9E3144114403EB30
:10C0C000716202EA030125EA02063143A74E3144B8
:10C0D0000D9E3044084402EB305101EA020023EA8D
:10C0E00001063043A24E30440E9E3544284401EBF5
:10C0F000F03000EA010522EA000635439D4E354442
:10C100000F9E33442B4400EBB32303EA010520EADE
:10C1100001063543984E3544019E32442A4403EBD0
:10C12000F26202EA000523EA00063543934E3544E5
:10C13000069E3144294402EBF15505EA030122EA47
:10C14000030631438E4E31440B9E3044084405EBC8
:10C15000B04000EA020125EA02063143894E31442B
:10C16000009E3344194400EB313303EA050120EA11
:10C1700005063143844E3144059E3244114403EB9D
:10C18000F16101EA000223EA000632437F4E3244A5
:10C190000A9E35442A4401EBF25505EA030221EADE
:10C1A000030632437A4E32440F9E3044104405EB6E
:10C1B000B04000EA010225EA01063243754E3244DE
:10C1C000049E33441A4400EB323202EA050320EAAB
:10C1D00005063343704E3344099E3144194402EB43
:10C1E000F16101EA000322EA000633436B4E334457
:10C1F0000E9E35442B4401EBF35505EA020321EA78
:10C2000002063343664E3344039E3044184405EB24
:10C21000B04303EA010025EA01063043614E304491
:10C22000089E3244104403EB303202EA050023EA50
:10C23000050630435C4E30440D9E3144084402EB09
:10C24000F06000EA030122EA03063143574E31440D
:10C25000029E3544294400EBF15101EA020520EA2F
:10C2600002063543524E3544079E33442B4401EBBE
:10C27000B34303EA000521EA000635434D4E354439
:10C280000C9E32442A44059D03EB3232054482EA77
:10C290000300494E484030442844089D02EB30706A
:10C2A0000D4480EA02015940444E3144294400EBD8
:10C2B00071550B99424E0B4485EA000151403144BF
:10C2C000194405EB31430E993E4E0A4483EA0501B9
:10C2D000414031441144019A03EB7121024481EA47
:10C2E0000300394E684030441044049A01EB30702A
:10C2F000154480EA0102354E5A4032442A4400EB8C
:10C300007255079A324E134485EA00024A4032447D
:10C310001A440A9B05EB32420B4482EA05012D4E7A
:10C320004140314419440D9B02EB7121034481EAE1
:10C33000020051E00123456789ABCDEF78A46AD7AD
:10C3400056B7C7E8DB702024EECEBDC1AF0F7CF539
:10C350002AC68747134630A8019546FDD8988069BC
:10C36000AFF7448BBED75C892211906B937198FD17
:10C370008E4379A62108B44962251EF640B340C019
:10C38000515A5E26AAC7B6E95D102FD6531444024F
:10C3900081E6A1D8C8FBD3E7E6CDE121D60737C3B4
:10C3A000870DD5F4ED145A4505E9E3A9F8A3EFFC90
:10C3B000D9026F678A4C2A8D4239FAFF81F671875C
:10C3C00022619D6D0C38E5FD44EABEA4A9CFDE4B89
:10C3D000604BBBF670BCBFBEBA4E684030441844D8
:10C3E000009B01EB30701D4480EA0103B64E5340C0
:10C3F00033442B44039D00EB7353154483EA00023E
:10C40000B24E4A4032442A44069D03EB32420D4468
:10C4100082EA0301AE4E414031442944099D02EBBA
:10C420007121054481EA0200AA4E58403044284454
:10C430000C9D01EB30701D4480EA0103A64E534071
:10C4400033442B440F9D00EB7353154483EA0002E1
:10C45000A24E4A4032442A44029D03EB32420D442C
:10C4600082EA03019E4E414031442944009D02EB83
:10C470007121054461EA03009A4E5040304428443B
:10C48000079D01EBB0601D4460EA0203964E4B40ED
:10C4900033442B440E9D00EBB353154463EA010271
:10C4A000924E424032442A44059D03EB72420D44B1
:10C4B00062EA00018E4E5940314429440C9D02EB42
:10C4C000F121054461EA03008A4E5040304428447B
:10C4D000039D01EBB0601D4460EA0203864E4B40B1
:10C4E00033442B4400EBB3550A9B844E134465EA56
:10C4F0000102424032441A4405EB7243019A804ED5
:10C500000A4463EA0001694031441144089A03EB8C
:10C51000F121024461EA05007A4E5840304410444B
:10C5200001EBB0620F98784E054462EA0300484080
:10C530003044284402EBB0550698744E034465EA33
:10C54000010050403044184405EB70430D98704E84
:10C55000014463EA0200684030440844049903EB54
:10C56000F0200A4460EA05016A4E59403144114402
:10C570000B9A00EBB161154461EA0302664E42403A
:10C5800032442A44029D01EBB2521D4462EA000388
:10C59000624E4B4033442B44099D02EB73430544E8
:10C5A00063EA01005E4E504030442844256803EBA6
:10C5B000F02029442160616808446060A068184444
:10C5C000A060E0681044E06040B0F0BD2DE9F047A5
:10C5D0000446154622680F46C2F3C50102EBC502A8
:10C5E00000202260B2EBC50F6268C1F1400801D2A1
:10C5F000521C626002EB5572626045451DD36018A3
:10C6000042463946183002F08FFC04F1080004F16C
:10C6100018018146FFF7ACFC404609E0391840227A
:10C62000404802F081FC3F494846FFF7A1FC3046F4
:10C6300000F14006AE42F1D900212A1A3B186018D9
:10C64000BDE8F0471946183002F06EBC70B5002303
:10C650001C4611E011F82350055531F823502E0ADD
:10C6600005196E7051F82360360CAE7051F82360D6
:10C670005B1C360EEE70241D9442EBD370BD7CB56E
:10C68000054600880E46C0F3C500382802D2C0F126
:10C69000380401E0C0F17804082229466846FFF713
:10C6A000D5FF224620492846FFF790FF0822694619
:10C6B0002846FFF78BFF102205F108013046FFF7EF
:10C6C000C5FF7CBDC67E9B28FA27A1EA8530EFD442
:10C6D000051D880439D0D4D9E599DBE6F87CA21F82
:10C6E0006556ACC4442229F497FF2A43A72394AB90
:10C6F00039A093FCC3595B6592CC0C8F7DF4EFFF9E
:10C70000D15D84854F7EA86FE0E62CFE144301A323
:10C71000A111084E827E53F735F23ABDBBD2D72A1B
:10C7200091D386EB1815001080000010EFF31080F5
:10C7300072B6704780F3108870470000F64A1047C1
:10C740002DE9F0411D4614460E460746FFF7EEFF61
:10C750008046F2483321E0E80216F04980E8B00054
:10C760001431EE48FFF7EAFF4046BDE8F041FFF71D
:10C77000E1BF30B4E94B322410C383E8070030BC7A
:10C7800003F11001181FD9E72DE9F04115460E46B7
:10C790000746FFF7CBFF0446E0483421C0E9001705
:10C7A000C0E9026500F11401FFF7C8FF2046BDE8AB
:10C7B000F041FFF7BFBF2DE9F0410D460746FFF7F7
:10C7C000B5FF0646D6480A2450F82410A94215D9C8
:10C7D000D348783850F82400A84209D121463A4677
:10C7E0000846FFF7C6FF21463A460846FFF7CCFF4A
:10C7F00021463A460846FFF7BCFF02E0641C152CB0
:10C80000E2D93046BDE8F041FFF794BF2DE9F04191
:10C81000C44C636803B96060C24BC04D00209B6884
:10C82000283503E00E5C1F18401CEE559042F9D3EA
:10C8300098184FF48075A060A84216D1D4E9000181
:10C84000FFF7B9FFB54E1436306840B9D4E900019E
:10C850002B4606F11402FFF773FF306810B1012078
:10C86000BDE8F0810020A06060600020F8E710B50E
:10C87000AC4C15210A202268FFF77BFF15210A2006
:10C880002268FFF781FFA5481430006808B1002036
:10C8900010BD012010BD2DE9F04115460E4607469A
:10C8A000FFF744FF04469D483821C0E90017C0E95E
:10C8B000026500F11401FFF741FF2046FFF73AFF40
:10C8C00096481430006808B10020C9E70120C7E786
:10C8D00095494FF420400860FDF7ACBC8F4810B577
:10C8E000352101600A214160816000F11401FFF7E8
:10C8F00025FF8A4814300068002800D0012010BDB0
:10C9000003E010F8013B01F8013B521EF9D27047D9
:10C910002DE9F0411546044628444FF480768846B8
:10C92000B04201D901209BE74FF4E04740227F4904
:10C93000384600F062F97D482A462044414602F01C
:10C94000F3FA7B4C072122460846FFF712FF072126
:10C9500022460846FFF718FF072122460846FFF740
:10C9600008FF3346714A39462046FFF7E9FE0020AA
:10C9700076E77048016921F44C7101616E48016CE1
:10C9800021F004010164016C41F010010164704761
:10C9900030B44FF40041694A09680020914231D116
:10C9A000654A102393653221491EFDD1516D490717
:10C9B00026D53221546D640700D4401C491EF9D19C
:10C9C000F0B9D3653221491EFDD1516D490717D405
:10C9D0003221546D640700D5401C491EF9D178B945
:10C9E00093653221491EFDD1516D490708D5322189
:10C9F000536D5B0700D4401C491EF9D1002801D0BB
:10CA000030BC65E730BC704710B5464C15210A2094
:10CA10002268FFF7AEFE15210A202268FFF7B4FE58
:10CA20003E4814300068002800D0FEE710BD70B505
:10CA3000402254023D49204600F0DFF83B483F4A7F
:10CA4000D1430260016100F05AFD394D08212A46A8
:10CA50000846FFF78EFE08212A460846FFF794FE97
:10CA600008212A460846FFF784FEE311214628469E
:10CA7000BDE870402D4A63E60A4601464FF4104077
:10CA80003EE72DE9F0410D460646002400F037FD53
:10CA90004FF4104740222549384600F0AEF82A46A8
:10CAA0003146224802F040FADFF8848009214246EC
:10CAB0000846FFF75EFE00F022FD092142460846C7
:10CAC000FFF762FE00F01BFD092142460846FFF712
:10CAD00050FE4FF48073154A39464046FFF730FE4A
:10CAE00000F00DFD40221149384600F086F80F484D
:10CAF00006E0315D025D914201D00020B0E6641C89
:10CB0000AC42F6D30120ABE60D494FF0007008604F
:10CB10000C49C04308607047F11FFF1F58150010F3
:10CB20006C170100C000001008ED00E000010010CB
:10CB3000A086010000C0024000C00920557755774B
:10CB4000707F0010747F00102F4810B50268001D20
:10CB50000368D843824201D1104610BD2BA10020AA
:10CB600000F083F84FF0FF3010BD2DE9F0410D4685
:10CB70000646002400F0C3FC4FF4603740222649EB
:10CB8000384600F03AF82A463146234802F0CCF9FC
:10CB9000DFF88880152142460846FFF7EAFD00F0DD
:10CBA000AEFC152142460846FFF7EEFD00F0A7FC5B
:10CBB000152142460846FFF7DCFD4FF48073164A04
:10CBC00039464046FFF7BCFD00F099FC402212496F
:10CBD000384600F012F8104806E0315D025D9142DF
:10CBE00001D000203CE6641CAC42F6D3012037E6BD
:10CBF0000A4601464FF4603082E602E008C8521E41
:10CC000008C1002AFAD17047707F0010252E3858CD
:10CC100020252E38580D0A0000010010A0860100C2
:10CC200070B5FF4C0546A16820686268801A08400C
:10CC3000F028F9D2FFF77AFD01462068D4E90223F3
:10CC40000240401C20609D54F64B187D800607D59D
:10CC50006068D4E902250240401C6060A85C18703E
:10CC6000BDE870400846FFF765BD0FB470B5EE4DE6
:10CC70002868002811D10120286006AB8021EB48EC
:10CC8000059A02F037F90026E84C02E0641CFFF731
:10CC9000C7FF20780028F9D12E6070BC5DF814FB26
:10CCA000E348016A41F0010101627047E149002057
:10CCB0000860486040F2FF1201F12003C1E902233D
:10CCC00010310860486001F50470C1E90220704726
:10CCD0002DE9F05FDFF860E34FF000084FEAEE0166
:10CCE000B1FBF0F1491CC1F34E0C4FEA2E13B3FB1C
:10CCF000FCF30121C146C3464246834230D08F1E19
:10CD0000624626E0002303F1010A0AF0FF0119E060
:10CD10000EFB01F42609B6FBF2F4CD18B4FBF5F4D2
:10CD2000241AB6FBF2F4B4FBF5F401D5041B00E0C1
:10CD3000241ABC4203D227469346994688461BB123
:10CD4000491CC9B21029E3D30AF0FF030F2BDAD331
:10CD5000521EB2EB5C0FD5D81FFA8BFC4A464146F7
:10CD6000B64850F8C43F43F080730360B44803688A
:10CD700023F440130360036843F4801303600368E3
:10CD800023F440030360036843F480030360AD4869
:10CD90008023037380F800C04FEA1C23037142EA2A
:10CDA000011180F828100321017300214160C7217F
:10CDB0000172416841F002014160416841F00101A6
:10CDC0004160072000F07FFBFFF770FFBDE8F05FD8
:10CDD00066E79748016A41F48041016270479A49C9
:10CDE000002008604860FF2201F12003C1E902230E
:10CDF00010310860486001F58870C1E90220704771
:10CE00002DE9F05FDFF830E24FF000084FEAEE0165
:10CE1000B1FBF0F1491CC1F34E0C4FEA2E13B3FBEA
:10CE2000FCF30121C146C3464246834230D08F1EE7
:10CE3000624626E0002303F1010A0AF0FF0119E02F
:10CE40000EFB01F42609B6FBF2F4CD18B4FBF5F4A1
:10CE5000241AB6FBF2F4B4FBF5F401D5041B00E090
:10CE6000241ABC4203D227469346994688461BB1F2
:10CE7000491CC9B21029E3D30AF0FF030F2BDAD300
:10CE8000521EB2EB5C0FD5D81FFA8BFC4A464146C6
:10CE90006A4850F8C43F43F01003036068480369D0
:10CEA00023F003030361036943F002030361036991
:10CEB00023F00C030361036943F008030361634833
:10CEC0008023037380F800C04FEA1C23037142EAF9
:10CED000011181620321017300214160C7210172A8
:10CEE000416841F001014160416841F00201416047
:10CEF000062000F0E8FAFFF772FFBDE8F05F68E790
:10CF00004749002008604860FF2201F12003C1E981
:10CF1000022310310860486001F58870C1E90220E1
:10CF200070472DE9F05FDFF810E14FF000084FEA9D
:10CF3000EE01B1FBF0F1491CC1F34E0C4FEA2E1388
:10CF4000B3FBFCF30121C146C3464246834230D0C5
:10CF50008F1E624626E0002303F1010A0AF0FF015A
:10CF600019E00EFB01F42609B6FBF2F4CD18B4FB70
:10CF7000F5F4241AB6FBF2F4B4FBF5F401D5041B66
:10CF800000E0241ABC4203D22746934699468846BD
:10CF90001BB1491CC9B21029E3D30AF0FF030F2BC0
:10CFA000DAD3521EB2EB5C0FD5D81FFA8BFC4A467F
:10CFB0004146224850F8C43F43F00803036020482C
:10CFC000036823F030030360036843F01003036039
:10CFD000036823F0C0030360036843F04003036069
:10CFE00010488023037380F800C04FEA1C230371AC
:10CFF00042EA011180F828100321017300214160E9
:10D00000C7210172416841F001014160416841F06E
:10D0100002014160052000F056FABDE8F05F6FE7BD
:10D020008016001000C00040CC000010000200106C
:10D0300000C00920C01A001040787D0100C00F40D8
:10D0400000C0024000800940A0180010000001400C
:10D0500010B54FF4E1342046FFF763FF2046FFF799
:10D06000CFFE6010BDE8104032E6FE490870087D32
:10D070004006FCD57047FB48017DC907FCD000780D
:10D0800070472DE9F041F84FDFF8D8830D4606468A
:10D09000B1F5807F35D832E0B86839687A68891A86
:10D0A0000140F029F9D239687A68891A0140C1F53E
:10D0B000807084B2AC4200D92C46281B85B2FFF7A1
:10D0C00035FB844608E016F8012B3868D7E90213CF
:10D0D0000140401C38605A54641EA4B2F3D298F840
:10D0E00014004146800607D57868D7E9022302403C
:10D0F000401C7860985C08706046FFF71BFB002DB1
:10D10000CAD1BDE8F08170B5D64CA06800F00F0020
:10D1100001282CD04008012813D0022803D003286E
:10D1200025D0062823D1D0491031207DC0071ED03C
:10D1300023780868D1E902250240401C0860AB54FE
:10D14000F3E7C94B1020D3E902250BE0401E5968D4
:10D1500010F0FF0002EA010601F101015960A95D2A
:10D16000217004D019685E68891B1142EED170BD30
:10D17000BE490870087D4006FCD57047BB48017D5C
:10D18000C907FCD00078704770B5B94C0546A16856
:10D1900020686268801A0840F028F9D2FFF7C6FAC2
:10D1A00001462068D4E902230240401C20609D54BF
:10D1B000AE4B187D800607D56068D4E90225024091
:10D1C000401C6060A85C1870BDE870400846FFF71E
:10D1D000B1BA2DE9F0410646A6480D46816B41F4EF
:10D1E0008041816341F6FF70401E0128FCD8A04FAA
:10D1F000DFF87882B5F5807F83D832E0B868396887
:10D200007A68891A0140F029F9D239687A68891A4E
:10D210000140C1F5807084B2AC4200D92C46281B75
:10D2200085B2FFF783FA844608E016F8012B3868C8
:10D23000D7E902130140401C38605A54641EA4B25E
:10D24000F3D298F814004146800607D57868D7E9EC
:10D2500002230240401C7860985C08706046FFF72B
:10D2600069FA002DCAD14CE710B5814C1034A06882
:10D2700022686168024001408A42F9D0FFF756FAFD
:10D2800001466068D4E902230240401C60609C5C57
:10D290000846FFF74FFA204610BDF0B4734CA06863
:10D2A00000F00F00012839D04008012813D00228CF
:10D2B00003D0032832D0062830D16D491031207DAB
:10D2C000C0072BD023780868D1E902250240401C12
:10D2D0000860AB54F3E7664B1020664DD3E90216A5
:10D2E0000FE0401EAA6B10F0FF0042F48042AA63D8
:10D2F0005A6801EA020702F101025A60F25D2270E7
:10D3000004D01A685F68D21B0A42EAD118685A68CA
:10D31000801A084202D1F0BC00F07DB9F0BC704721
:10D3200055490870087D4006FCD570475248017D7C
:10D33000C907FCD00078704770B5504C05464FF4D3
:10D34000F873A16820686268801A08409842F9D290
:10D35000FFF7ECF901462068D4E902230240401CA3
:10D3600020609D54444B187D800607D56068D4E941
:10D3700002250240401C6060A85C1870BDE8704047
:10D380000846FFF7D7B92DE9F0413C4FDFF8E880B8
:10D390000D460646B1F5007F37D834E0B8684FF443
:10D3A000F87239687B68C91A01409142F9D239682C
:10D3B0007A68891A0140C1F5007084B2AC4200D984
:10D3C0002C46281B85B2FFF7B1F9844608E016F811
:10D3D000012B3868D7E902130140401C38605A54C9
:10D3E000641EA4B2F3D298F814004146800607D513
:10D3F0007868D7E902230240401C7860985C087086
:10D400006046FFF797F9002DC8D17AE610B51B4C9E
:10D410001034A06822686168024001408A42F9D055
:10D42000FFF784F901466068D4E902230240401CFA
:10D4300060609C5C0846FFF77DF9204610BD70B522
:10D440000D4CA06800F00F0001283BD040080128D7
:10D4500022D0022803D0032834D0062832D107492D
:10D4600010310DE000C000408016001000000140A7
:10D47000A018001000C0092000800940C01A001048
:10D48000207DC0071ED023780868D1E9022502401C
:10D49000401C0860AB54E4E7104B1020D3E9022590
:10D4A0000BE0401E596810F0FF0002EA010601F18E
:10D4B00001015960A95D217004D019685E68891B5B
:10D4C0001142EED170BD00F01F02012191404009D0
:10D4D000800000F1E020C0F800117047C01A001071
:10D4E0004FF08040016921F003010161016941F0C1
:10D4F00001010161017841F0020101707047194892
:10D5000010B5007800280AD1FFF710F9AA225107B8
:10D510000A7255220A72BDE81040FFF70BB910BD20
:10D5200041F66A01484349074860087840F0010025
:10D530000870E4E741F66A01484349074860DEE7BE
:10D540004FF08040C06870474FF08040007800F096
:10D55000040070470349012008707047014900200A
:10D5600008707047D00000104FF040210868086034
:10D5700045490120087045490868401C086070470B
:10D58000434850F8C41F41F0020101604FF04020B1
:10D59000022141600F210160002101671821C16053
:10D5A00042F21071816103214161012000F060B8F5
:10D5B0004FF040210120486070474FF04020416803
:10D5C00021F00101416070474FF04020416841F077
:10D5D0000201416070472C48017819B100210170A7
:10D5E0000120704700207047294850F8C41F41F0BF
:10D5F000040101602748022141600F2101600021E0
:10D6000001671821C1604FF47A7181610321416182
:10D61000022000F02DB81F490120486070471D48C6
:10D62000416821F00101416070471A4900B508685E
:10D630000860FFF7F4FF1848C16B41F48041C163F3
:10D6400000BD134850F8C41F41F4800140F86C1B22
:10D65000C16F21F44051C167C16F41F48051C1676E
:10D660000E480021416001600167C160416170475F
:10D6700000F01F02012191404009800000F1E020EC
:10D68000C0F8001170470000D10000101C0000100D
:10D6900000C00F400080004000C009200000094089
:10D6A0000448016C41F400610164016C41F4805153
:10D6B0000164704700C009203648016C21F08001E8
:10D6C0000164354850F8B01F41F0800140F804195A
:10D6D000816841F080018160016841F08001016052
:10D6E0002E49002081F800044FF0E0214FF4001093
:10D6F000C1F8000170472DE9F0472748D0F8A8107D
:10D70000274D090609D50021A96001216960D0F8DB
:10D71000AC1041F08001C0F8AC108146D0F8A400F4
:10D72000000634D5AC681F4EB460E868401C03F0B6
:10D73000E4F907468846204603F0DFF900221A4B39
:10D7400003F026F843463A4603F0EAF902F046FFB2
:10D75000F06003F0CDFB154A154B03F0E1F9002210
:10D76000144B03F015F80022134B03F0D9F903F022
:10D7700067F93080686820F001006860484650F81A
:10D78000AC1F41F0800101600C4800687060BDE88A
:10D79000F087000000C009200080024015E000E092
:10D7A00000000940D4000010006AF8405C8FC2F508
:10D7B000285C254000004F4000408F401C000010B6
:10D7C000824850F8C41F41F04001016080490A6955
:10D7D00022F44C7242F488720A61CA6822F443420D
:10D7E00042F40242CA60D0F8E41021F4405141F4FE
:10D7F0008051C0F8E4107748416821F00801416089
:10D800000021C1600161016702214161C16C41F4E5
:10D810007051C16470494FF4C8720968B1FBF2F1EC
:10D8200081616E490162416201644164416841F075
:10D8300001014160416841F008014160704770B5E5
:10D840000446084603F059F94FF03332644B03F0B5
:10D8500067F90022634B02F0F3FE02F0BFFE03F013
:10D86000F1FB614A5D49904201D9104602E08842CD
:10D8700000D20846574D012C12D0022C1CD0032C8C
:10D8800031D0042C0BD16864696C814203D057A15C
:10D890000020FFF7EAF9286D40F02000286570BDF0
:10D8A0002862296A814203D054A10020FFF7DDF9E4
:10D8B000286D40F00400F1E76A6A8A4207D1884285
:10D8C00005D952490A6852490A6000224A606862D2
:10D8D000696A814203D04FA10020FFF7C6F9286D85
:10D8E00040F00800DAE72864296C814203D04DA19A
:10D8F0000020FFF7BAF9286D40F01000CEE701468E
:10D900000020344A012907D0022907D0032907D073
:10D91000042900D1506C7047106A7047506A7047F4
:10D92000106C704730B5042833D82A494A6822F071
:10D9300008024A603F4B354C3F4D284A012806D02B
:10D9400002280BD0032810D004281ED115E0086A45
:10D95000904201D10B6214E00A6216E0486A9042DC
:10D9600001D14B620DE04A620FE0086C904203D196
:10D970000B642068286000E00A64486C904203D180
:10D980004B642068286000E04A64486840F0080062
:10D99000486030BD0F494A6822F008024A604CF2E4
:10D9A0005032012806D0022806D0032806D00428C9
:10D9B00007D105E00A6204E04A6202E00A6400E07E
:10D9C0004A64486840F008004860704700C00F4053
:10D9D00000C00240008001400400001098B1010026
:10D9E000333320408019FB4000EE02007365742041
:10D9F00070776D34206661696C65640073657420AE
:10DA000070776D31206661696C6564001C000010E0
:10DA1000E40000107365742070776D3220666169D0
:10DA20006C6564007365742070776D33206661697E
:10DA30006C656400CC4F02003000001070B50446E5
:10DA4000F8480D46844212D1F74801F03FF958B129
:10DA5000F64801F03BF9002809D1F4492A4620464E
:10DA6000BDE8704001F07DB92A46EF49F7E770BD87
:10DA700010B5C1690446EE480140B1F5802F1DD0B4
:10DA80000DDC042918D0B1F5806F06D0B1EB202150
:10DA90001DD101212046FFF7D1FF022108E0B1F19D
:10DAA000041F0DD0E34808180CD004280FD104211E
:10DAB0002046BDE81040C1E70121F9E70321F7E75F
:10DAC000012100E002212046FFF7B8FFF6E710BD74
:10DAD000016AD94AC1F303411160416AC1F30A01E5
:10DAE0005160816A9160C16AD16004214160CD4971
:10DAF000884211D1D14950680B6902F1080198425E
:10DB000002D11268CD4805E0CD4B1B69984203D184
:10DB10001268CB4801F0EFB8704770B5C14DEC68A2
:10DB2000C848826941F6FC70024203D0C6A10020B9
:10DB3000FFF79BF8E00702D02846FFF7C9FF40F245
:10DB40000260044202D02846FFF792FF14F4FE7FE1
:10DB500038D0600703D5BFA10020FFF786F8200763
:10DB600002D5284600F027F9A00603D5BEA1002063
:10DB7000FFF77BF8600603D5C0A10020FFF775F81A
:10DB800020061FD528682C46C0070AD0A268C0A16D
:10DB90000020FFF76AF80020A06008202060022023
:10DBA0006060A16808060DD5C0A10020FFF75DF8F0
:10DBB000A268B7A10020FFF758F82046BDE87040E2
:10DBC00000F0F9B870BDA8E710B5BB49954800F062
:10DBD000F9F801F017F800F011FB4FF0E0214FF0D9
:10DBE0000070C1F8000110BD8E48092101600021BC
:10DBF0000161816008210160B04850F8C41F21F420
:10DC000000510160704710B5029C03634463816357
:10DC1000C26310BD10B5029C036444648164C26495
:10DC200010BD10B5029C036544658165C26510BDD9
:10DC30002DE9FE43064600200190044602907948F3
:10DC40001D468846864201D19D4C04E09D4886428F
:10DC500001D19B4C641C2078FF2824D0082A01D3D2
:10DC6000082700E017463A4601A801F060F8B842DC
:10DC700019D14FF4702000EA074320780343401C79
:10DC80002070D8F81010012D0FD0022D14D0009163
:10DC9000DDE9011203253046FFF7C3FF1020A8403D
:10DCA00040F001007060BDE8FE830091DDE90112E3
:10DCB0003046FFF7A8FFF1E70091DDE90112304699
:10DCC000FFF7A8FFEAE72DE9F04188B00E460746C6
:10DCD0001546182101A801F06CF95248002487422A
:10DCE00001D1774C04E07748874201D1744C641C21
:10DCF000182D00D31825002020702A46314601A88F
:10DD000001F015F8A84253D14FF4702C4FF02108C0
:10DD1000082D0ED820780CEA05430343401C2070E0
:10DD200030690090DDE901123846FFF76CFF40468C
:10DD30003DE02078102D40F4002300F10100207018
:10DD400030690090DDE90112384613D8FFF75BFF18
:10DD5000C7F80480083D20780CEA05430343401CC3
:10DD6000207030690090DDE903123846FFF752FF5A
:10DD700041201CE0FFF747FF207840F40023401CBF
:10DD8000207030690090DDE903123846FFF742FF4A
:10DD9000103D20780CEA05430343401C2070306995
:10DDA0000090DDE905123846FFF73BFFE12078607F
:10DDB00008B0BDE8F08109210160002181600821DF
:10DDC00001607047174B3D4A984215D152F8C43F45
:10DDD00043F4005313603C4A136823F003031360B9
:10DDE000136843F001031360136823F00C031360FE
:10DDF000136843F0040306E0324B984204D152F812
:10DE0000C43F43F480431360092202600022026190
:10DE100082604161016940F28F6211430161082112
:10DE20000160704700400440702500108C270010EE
:10DE30000404040000FCFBFFE01E00103821001069
:10DE40005423001000C0034041463A252E32780D7D
:10DE50000A0000006572726F72207761726E696EDF
:10DE6000672E0D0A000000006572726F72207061EB
:10DE700073736976652E0D0A000000006172626995
:10DE800074726174696F6E206C6F73742E0D0A006A
:10DE900063616E20726573657420696E20696E74AB
:10DEA000203078253038782E0D0A00006275662003
:10DEB0006F66662E0D0A00000400020000C00F40CD
:10DEC000EC0000100080044000C002402DE9FC4F2F
:10DED000002201230360DFF8FCB3DFF8FCA3FF4D51
:10DEE00008686FF4C05E18B18AF80030002631E08F
:10DEF00000208AF8000030E002F1010CBCF1400F74
:10DF00006DD80C68BAF802702078638894F8019094
:10DF1000FC0726D005EB8204226843EA40380EEA6B
:10DF20001242904579D3420342EA093018432268ED
:10DF300040F400606FF30F02226022680243226007
:10DF40007F1C1FFA8CF2AAF802700868001D761C6C
:10DF5000B6B208600879B042CED88868F0B300271E
:10DF600054E05AB10BEB8204D4F8FC4F4EF2FF7828
:10DF700004EA080443EA4038A045D3D3440744EAFE
:10DF8000097040EA034040F0006305EB820004683A
:10DF9000A4B2046004681C4304607F1CB8B2AAF8F1
:10DFA00002000B798342D0D11FFA8CF2CDE702F147
:10DFB000010CBCF5007F12D88C68BAF80460207898
:10DFC000638894F80190F40728D005EB8204226856
:10DFD00043EA40380EEA1242904501E019E0B2E00F
:10DFE0001BD3420342EA0930226818436FF30F0241
:10DFF0002260226802432260761C1FFA8CF2AAF883
:10E0000004608868001D7F1CBFB28860087BB8422E
:10E01000CDD80869F0B3002663E08BE05EB10BEB6E
:10E020008204D4F8FC4F4EF2FF7804EA080443EA75
:10E030004038A0457ED3440744EA097040EA0343D0
:10E0400005EB82000468A4B2046004681C43046009
:10E05000761CB0B2AAF804000B7B8342D1D11FFA20
:10E060008CF2CEE702F1010EBEF5007F6BD8086995
:10E070000478077943780193437900934388BAF889
:10E0800006C0C0885FEA0C0911D00BEB820CDCF8EB
:10E09000FCCF00E028E04EF2FF780CEA080CBC420E
:10E0A0006AD1834268D843EA4438E04564D34FEAF2
:10E0B000447C019C4CEA047444EA034343EA473439
:10E0C000009B44EA0333034345F8223009F101027F
:10E0D000AAF8062008691FFA8EF20830761CB6B23C
:10E0E0000861087DB042BDD8886910B300201DE0EA
:10E0F000531C1E46B3F5007F25D88B695C681B78DE
:10E1000044EA4373BAF808402CB10BEB8207D7F806
:10E11000FC7F9F4230D845F82230641CAAF80840A2
:10E120008B69B2B20833401C80B28B610B7F834293
:10E13000DED800E020E0086AC8B3002633E0901C77
:10E14000B0F5007F02D90220BDE8FC8F086AD0E953
:10E15000013C04784778BAF80A005FEA00090DD05C
:10E160000BEB8200D0F8FC0FBC4205D1634503D80D
:10E1700043EA4478804501D20520E5E743EA44704C
:10E1800045F82200521C90B24CEA477245F8202014
:10E19000401C09F1010382B2AAF80A30086A0C3067
:10E1A000761CB6B2086291F82400B042C7D8BAF81B
:10E1B00002005146401C40088200494842604368C2
:10E1C000BAF80420521C520803EB82028260826873
:10E1D000BAF8063002EB8302C260C2680B8902EB18
:10E1E0008302026102694B8902EBC30242619AF821
:10E1F000001001B1042101600120A5E7394A002087
:10E2000040F212411070507051801071507140F204
:10E210001751D180A2F12801086008718A6002229A
:10E220000A730861087588610877086281F824001C
:10E230002B484BE62DE9FC4F2B4B8E464FF0000848
:10E240004146984204D0294B984201D14FF0010831
:10E25000DFF884A0BAF80270BB4607EB47037F1CC7
:10E2600003EB5704BAF804305E1C04EB5605BAF809
:10E27000064000942C44BAF80850BAF80A002C441E
:10E2800004EB400004B2B4F5007F01DB02205BE741
:10E29000DFF84C900120C9F80000DFF840C04AB117
:10E2A00000984EEA487200EB560000EB5700D0464B
:10E2B00000B2C8E01AB201927A08CEF30A0047F31E
:10E2C0004F0102EB560240EA48300D460FFA82FA3F
:10E2D0000EE0000000700340EE00001000800340DC
:10E2E00000C00340181F001000400440008004409C
:10E2F0006FF4C05E00920FE00CEB8102D2F8008058
:10E300000EEA1847874270D012684EF2FF773A4003
:10E3100082426AD0491C09B252465145ECDBD9070A
:10E3200011D11146621A12B25CF8214008E0491C72
:10E3300009B20CEB8108D8F80070C8F800403C46E0
:10E34000521E12B2F3D233B1012B0BD054464EF20F
:10E35000FF7A019A2FE04FF6FF7101EB00400CEBC2
:10E3600085010AE00CEB85010B680EEA134282423C
:10E3700005D90A68120C42EA004008604BE00A68BE
:10E380006FF30F0202430A6045E00CEB8501D1F800
:10E3900000800EEA1847874201D9690007E0096842
:10E3A00001EA0A01814204D9012101EB45010AB2C7
:10E3B00003E06D1C2DB2A542E7DBA54204D1D907CD
:10E3C000C9D00CEB8501DAE70CEB85042168D20794
:10E3D00007D00A0C1204024322600098401E04B2C7
:10E3E0000EE0000440EA1142F6E748E06D1C2DB251
:10E3F0000CEB85021068070C47EA014111600146E9
:10E40000A542F3DBD80706D14FF6FF7000EB0140C1
:10E410000CEB85014860FE488680F0072FD0D9F8C4
:10E4200008104846091DC9F80810D9F80C10091D34
:10E43000C9F80C101DE05CF82030934205D8401C50
:10E44000491C00B209B2A942F5DB0CEB8006336827
:10E4500032606D1CAAF8085008E0401C00B20CEBBA
:10E460008002491C156809B213602B46A142F4DBF7
:10E4700048460169091D01614169091D4161BBF1FE
:10E48000000F04D00421C9F8001001205CE600212F
:10E49000F9E72DE9F04F0023DE4A1C46904203D0F5
:10E4A000DD4A904200D10123D94A5088451C00EB37
:10E4B0004006AB4606EB550695886D1C06EB5505E8
:10E4C000D688354416893544568905EB46052EB263
:10E4D000B6F5FE7F01DA402802D30220BDE8F08FB6
:10E4E000CE4F4FF0010EC7F800E0C1F30A0141EA38
:10E4F0004331DFF82C9341F40061C20711D186B19A
:10E5000042083346C84659F8227007E0521C12B23E
:10E5100008EB8205D5F800C02F6067465B1E1BB272
:10E52000F4D24FF6FF7A58B16FF4C05C01280CD0DA
:10E530000022431E04B243F34F0721F4C0552EE0DE
:10E540000AEB0142C9F800205FE0D9F800304A46E2
:10E550000CEA13438B4205D913681B0C43EA0141B3
:10E56000116052E013686FF30F030B4313604CE02C
:10E5700009EB8203D3F800800CEA1848A84501D9BA
:10E58000530008E01B684EF2FF7803EA0803AB4231
:10E5900003D90EEB42031CB203E0521C12B2BA4282
:10E5A000E6DDBA4209DDC30702D009EB8202D9E7F2
:10E5B0000AEB014309EB820126E009EB820C4F468E
:10E5C000DCF80030E50707D01D0C2D040D43CCF816
:10E5D00000504FEA500C0EE0090441EA1345F6E7FB
:10E5E000521C12B207EB820529684FEA114848EA2B
:10E5F00003432B600B466245F2DBC10705D109EBF3
:10E6000082010B6843EA0A030B60011BA0EB800048
:10E61000304404EB44021044401C06B209EB86006F
:10E62000DFF8ECA1046809B2C84645688368002297
:10E63000826042600260F61C32B20DE008EB82009C
:10E64000D0F800C047688668046045608360D21CCB
:10E6500064463D46334612B2491E09B2EED26F48B7
:10E66000AAF802B04168091D41608168091D8160F6
:10E67000C168091DC1600169091D01614169091D68
:10E68000416104210160012028E72DE9FC4F0027AA
:10E69000914275D85F4DA84200D001275C4E4FF0E3
:10E6A000010A7088019000EB4005401C05EB500802
:10E6B000B58805F1010EF58808EB5E0808EB050941
:10E6C000B6F80880CDF80080C144B6F80A8009EB9E
:10E6D0004806DFF8489136B2C9F800A023B1B6F574
:10E6E000FF7F65DD02202FE5B6F5007FFADAC1F382
:10E6F0000A03790741EA0341C2F30A0241EA4731BA
:10E7000011434708DFF808A107EB5E0738B225B1CF
:10E710002F443FB2DFF8089126E0820040481150B4
:10E7200039E0401C00B200E04C4654F820C04FEAEB
:10E730005C7CBCEB517FF4D309EB800CDCF800402F
:10E74000DCF800C04FEA5C7CBCEB517F05D8C4F319
:10E750000A4CC4F30A08624502D849F8201005E0C3
:10E7600043450DD3401C00B2B842DDDBB84203DBA9
:10E7700009EB800214681160311A09B24E4607E0B5
:10E7800079E0401C00B206EB8002136814601C465E
:10E79000491E09B2F5D221486D1CAAF80650C1687D
:10E7A000091DC1600169091D01614169091D7BE005
:10E7B000430803EB5E004319009821F0604B22F000
:10E7C000604903444BEA477149EA477218B2B8F10D
:10E7D000000F04D003EB48030FFA83FA35E08300FF
:10E7E0000F4818440160426056E0401C00B200E04F
:10E7F0000B4B53F82040B7EB547FF6D803EB800364
:10E800001C68D3F804C01B685B0FB3EB517F09E0B1
:10E81000EE000010004004400080044000C00340AF
:10E820000080034005D824F060432CF0604E9945E9
:10E8300007D8F04B43F82010401C00B243F82020CA
:10E8400005E0F34517D3801C00B25045D0DB50459E
:10E850000ADBE84D05EB80031C68D3F804C019609F
:10E86000401C00B245F82020311A491C401C09B256
:10E8700002B2E04E0EE0062066E406EB820003687A
:10E8800045680460C0F804C0921C891E1C46AC4652
:10E8900012B209B20029F0DCD74808F10108A0F84B
:10E8A0000A80D648416908314161019820B10421AC
:10E8B000D2480160012047E40021F9E72DE9FC4F2F
:10E8C000CE4F01223A60DFF83093DFF828B34FF0E3
:10E8D000000EB9F802305C1C64080194B9F804C059
:10E8E0000CF1010504EB55050095B9F80640B9F89F
:10E8F000086005EB0408B9F80A2008EB060505EBEB
:10E900004205ADB258B101287ED002287DD003283F
:10E910007CD04C460AB1914279D3072014E4002BF5
:10E92000FBD09942F9D24808DC465BF820405A1ADD
:10E93000521EC2F34F02CE070ED021E00CEB80082E
:10E94000C246D8F804604FEA164848EA0444CAF8B8
:10E950000040401C344680B2521E92B2EED212E009
:10E960000CEB8006D6F804806FF30F0444EA1844D9
:10E970003460746824047460401C4FEA084480B218
:10E98000521E92B2ECD2DA0707D003EB43022A44BC
:10E9900096B2DFF86C82019814E0CA074FF6FF7256
:10E9A00003D014434CF8204021E002EB04424CF821
:10E9B00020201CE0820052F80C404244C2F8FC4F78
:10E9C000401C80B28642F5D808EB8000C0F8FCEF0E
:10E9D0007868001F7860B868001FB860F868001F8A
:10E9E000F8603869001F38617869001F786101EBB1
:10E9F00041005B1E284482B2581A401C00EB4000C4
:10EA0000A9F8023081B20FE011E082E0A6E0D3E085
:10EA10000CEB8200C3680360036943604369836051
:10EA2000C91ED21C89B292B20029F1D1BDE0BCF15D
:10EA3000000F3FF472AF6145BFF46FAF019800EB78
:10EA4000510080B25BF82040ACEB0102521EC2F3D1
:10EA50004F02CE070ED021E00BEB8008C246D8F85B
:10EA600004604FEA164848EA0444CAF80040401CD3
:10EA7000344680B2521E92B2EED212E00BEB800608
:10EA8000D6F804806FF30F0444EA184434607468C5
:10EA900024047460401C4FEA084480B2521E92B2B3
:10EAA000ECD24A465FEACC7608D003EB43010098EB
:10EAB000294480B28BB2524C5D4613E0C9074FF631
:10EAC000FF7103D00C434BF820401DE001EB0441E3
:10EAD0004BF8201018E081004E592144C1F8FC6F1A
:10EAE000401C80B28342F6D804EB8000C0F8FCEFF3
:10EAF000B868001FB860F868001FF8603869001F28
:10EB000038617869001F7861ACF1010CA9F804C084
:10EB10004BE04A46002C8CD0A1428DD200985E4634
:10EB2000084403EB43012944401C80B28BB2344DAE
:10EB300007E0810051F806C02944C1F8FCCF401C11
:10EB400080B29842F5D305EB8000C0F8FCEF641E5C
:10EB5000A9F80640F868001FF86020E04A46002E39
:10EB6000D9D0B142D9D208EB010003EB43012944CB
:10EB7000401C80B28BB2224C5D4607E0810051F808
:10EB800005C02144C1F8FCCF401C80B29842F5D3A7
:10EB900004EB8000C0F8FCEF761EA9F80860386925
:10EBA000001F38617869001F7861B9F80200F0B180
:10EBB00004203860012069E4A5EB420000EB41002D
:10EBC00003EB4301294480B28BB25D4607E005EBBD
:10EBD00080018E680E60CE684E60801C80B29842C4
:10EBE000F5D3521EA9F80A2078690838DCE7704688
:10EBF000DFE7000000800340EE00001000C003408B
:10EC0000007003404FF400737B4910B55A1E00207A
:10EC1000C1E9022308604860A1F500744C6140F22C
:10EC200012440C61087601F50771C1E902230860FE
:10EC30004860A1F500744C6140F217540C610876ED
:10EC400001F50771C1E9022308604860A1F500746D
:10EC50004C6140F213440C61087601F50771C1E97B
:10EC6000022308604860A1F500744C6195240C6192
:10EC7000087601F50771C1E9022308604860A1F533
:10EC800000724A6140F216520A61087610BD41686E
:10EC9000826811404269515C4268521C42600846D9
:10ECA0007047026883681A40436999540168491C97
:10ECB0000160704702688168521C40680A40084041
:10ECC000824201D1012070470020704702688168AC
:10ECD00040680A400840824201D10120704700206C
:10ECE0007047016842688068891A084070470021AF
:10ECF00001604160704770B515460C460346FFF74A
:10ED0000F0FFD968081AA84201D928460BE0002074
:10ED100070BD14F8012B19689E6831405E69725409
:10ED20001968491C1960401EF3D2284670BD30B5E1
:10ED3000044615460B460846FFF7D3FF854200D828
:10ED40002846024609E059689D6829405D69695C6A
:10ED500004F8011B5968491C5960401EF3D2104643
:10ED600030BD70B5044613460D460846FFF7B9FF9F
:10ED7000020029D0E06921490840012B0ED0022B66
:10ED800012D0032B16D0042B1ED11D4981431BD159
:10ED900029462046BDE87040FEF795BFC0F38100CC
:10EDA000032811D1012309E0C0F3812003280BD1EE
:10EDB000022303E0800C032806D1032329462046C2
:10EDC000BDE87040FEF734BF70BD70B516460D4605
:10EDD00004461A4631462846FFF78DFFA0684007D3
:10EDE00009D5E1690648884305D129462046BDE892
:10EDF00070400422B5E770BD382100100C0C0C00E7
:10EE00000404040053EA020C00F069802DE9F04B81
:10EE10004FF00006002B1FBFB3FA83F503FA05F489
:10EE200024FA05F65E4012BF1643B2FA82F502FAE2
:10EE300005F4C5F120051EBF22FA05FC44EA0C04C6
:10EE4000203556EA044C4FEA144418BF641C4FF0B6
:10EE500000084FF00009904271EB030C39D30029F0
:10EE600019BFB1FA81F701FA07F6B0FA80F700FA94
:10EE700007F6C7F120071EBF20FA07FC46EA0C067A
:10EE80002037B6FBF4FCA7EB0507103F07F01F0B7C
:10EE9000CBF120060CFA0BFB2CFA06F644BFB34666
:10EEA0000026202FA4BF5E464FF0000B5BEA060C45
:10EEB00008BF4FF0010B19EB0B09ABFB027C48EBD1
:10EEC0000608C01B06FB02CC0BFB03CC71EB0C014C
:10EED000C1E70B46024641464846BDE8F08B13B5F4
:10EEE0004FF000004FF00001AFF30080BDE81C4080
:10EEF000704700007CB51D4616460C00009001D0FE
:10EF00002044401E074B7B442A4669460190304608
:10EF100000F02DF905461CB10020694600F03AF9D1
:10EF200028467CBD95020000032A40F2308010F094
:10EF3000030C00F0158011F8013BBCF1020F624494
:10EF400098BF11F801CB00F8013B38BF11F8013B25
:10EF5000A2F1040298BF00F801CB38BF00F8013BD2
:10EF600011F0030300F00683083AC0F0088051F85E
:10EF7000043B083A51F804CBA0E80810F5E7121D4D
:10EF80005CBF51F8043B40F8043BAFF30080D2076C
:10EF900024BF11F8013B11F801CB48BF11F8012B38
:10EFA00024BF00F8013B00F801CB48BF00F8012B5B
:10EFB00070474FF0000200B513469446964620393C
:10EFC00022BFA0E80C50A0E80C50B1F12001BFF422
:10EFD000F7AF090728BFA0E80C5048BF0CC05DF888
:10EFE00004EB890028BF40F8042B08BF704748BFD6
:10EFF00020F8022B11F0804F18BF00F8012B70474A
:10F0000070B5044685690068C10601D5302600E068
:10F010002026C00707D070BDD4E9012130469047B3
:10F02000206A401C20626D1EF6D570BD70B5044686
:10F0300085690078C00707D170BDD4E9012120207F
:10F040009047206A401C20626D1EF6D570BD09688D
:10F050004A0501D540B27047C905FCD500B27047DA
:10F0600009684A0501D5C0B27047C905FCD580B210
:10F07000704770B50C460546012A05D028788006F1
:10F0800000D5EA69002302E0012305E05B1C9342FE
:10F0900002D2E05C0028F9D1A869E618C01AA8617C
:10F0A000286A184428622846FFF7AAFF04E0D5E939
:10F0B000012114F8010B9047B442F8D32846FFF71A
:10F0C000B5FF70BD2DE9F041064600241068752992
:10F0D000314616A510D0FFF7BAFF002802DA4042E9
:10F0E00013A507E031688A0701D512A502E0490798
:10F0F00004D511A5012401E0FFF7B2FF00210A2287
:10F1000006F1240709E0B0FBF2FCB0FBF2F302FBCE
:10F110001C00303078541846491C0028F3D123468F
:10F120002A463046BDE8F04100F09BBA00000000DE
:10F130002D0000002B000000200000001168026874
:10F14000006A530501D508700AE0D30501D508808F
:10F1500006E0130603D5C217C1E9000200E008600B
:10F160000120704701694A1C02610878704700B5A8
:10F170008FB0CDE901310021059105497944CDE9F0
:10F1800003101146684600F031F90FB000BD0000D1
:10F19000E5FFFFFF0A6802F8010B0A607047D1E93A
:10F1A00000239A4202D2531C0B601070704700007B
:10F1B0002DE9FF5F15468A460446DFF8AC80F84427
:10F1C0000027D8E900103E46CDE9001010E03AF8DB
:10F1D00016106A4602A800F0D6FC411C07D0217820
:10F1E000890603D5E269391891420DD80744761C87
:10F1F0002078800602D5E069B84205DDAE42E6DB44
:10F200003AF816000028E2D1A069C01BA061204690
:10F21000FFF7F6FED8E90010CDE90010002017E056
:10F220003AF818106A4602A800F0ADFCB0F1FF3FB2
:10F2300081460BD000250DF1080B05E0D4E9012132
:10F240001BF8050090476D1C4D45F7D308F10100F0
:10F25000B0428046E4DB206A384420622046FFF753
:10F26000E5FEBDE8FF9F0000222600002DE9F041E9
:10F270008046D21D22F007020025D2E90002F529BE
:10F2800015A614D0011E72F1000106DA0023D0EB9E
:10F29000030063EB020211A608E0D8F800108B0708
:10F2A00001D50FA602E0490701D50EA6012511469A
:10F2B000002408F1240704E000F08EF930323A55BA
:10F2C000641C50EA0102F7D12B46324621464046E3
:10F2D000BDE8F04100F0C5B9000000002D000000BD
:10F2E0002B0000002000000030B4002100F12404B5
:10F2F00008E002F00705D208303542EA4372DB0825
:10F300006554491C52EA0305F3D10468002310A296
:10F31000250708D504F020040C4304D0C469012358
:10F320000CA2641EC46130BC00F09BB910B5044649
:10F3300021461068FFF794FE02462046BDE81040C3
:10F340000023D1E7D21D22F00701D1E90023CBE74A
:10F350000000000030000000F0B40D4601880905EF
:10F3600002D5214C7C4402E01F4C7C440E34002129
:10F3700000F1240608E002F00F071209E75D42EAF7
:10F3800003721B097754491C52EA0307F3D1027830
:10F390000023120704D5702D06D009B102231134C1
:10F3A0002246F0BC00F05DB901231034F8E770B5D7
:10F3B00004460D4621461068FFF752FE02462946D4
:10F3C0002046BDE870400023C6E7D21D22F00703A7
:10F3D000D3E90023C0E70368126843F02003036009
:10F3E0000823C3610023B7E7842400002DE9F05F00
:10F3F000894604464FF0000ADFF874B1FB44C0F8B8
:10F4000020A02046E1688847002874D0252806D02F
:10F41000D4E901219047206A401C2062F1E70026D0
:10F420005F462046E16888472028054607DB312DE6
:10F4300005D2781910F8200C08B10643F1E7B0079F
:10F4400001D526F00406C4F81CA00027C4F818A0B3
:10F450002A2D09D0284601F08DF838B304EB87082F
:10F46000303DC8F8185019E059F8041B204604EB49
:10F4700087029161E1688847012F054618D1E0694C
:10F48000002820DA26F020061DE0D8F8180000EB4E
:10F49000800005EB40003038C8F818002046E168CD
:10F4A0008847054601F066F80028EED1012F0AD002
:10F4B0002E2D08D12046E16888477F1C0546022F83
:10F4C00046F02006C4DBA069002803DA404246F07B
:10F4D0000106A061F00701D026F010066C2D0BD0BC
:10F4E000682D09D04C2D39D06A2D35D0742D35D0EA
:10F4F0007A2D33D016E038E0E1682F462046884761
:10F50000B842054609D16C2F26D04FF48060E168DF
:10F51000064320468847054604E06C2F1AD04FF476
:10F52000807006430DB3A5F14100192802D820359B
:10F5300046F400664A462946204626604E46FAF7BB
:10F540000FFE80B101280BD0F61D26F0070000F158
:10F55000080956E74020E4E78020D8E70020D6E7F6
:10F5600006F104094DE7284652E7206ABDE8F09FFE
:10F570001424000010B5203AC0F00B80B1E81850F8
:10F58000203AA0E81850B1E81850A0E81850BFF48D
:10F59000F5AF5FEA027C24BFB1E81850A0E818502C
:10F5A00044BF18C918C0BDE810405FEA827C24BF80
:10F5B00051F8043B40F8043B08BF7047D20728BF0E
:10F5C00031F8023B48BF11F8012B28BF20F8023B5D
:10F5D00048BF00F8012B704730B5B0F10A024FEA7E
:10F5E000900E71F100034EEA817EB0EB0E0061EBEC
:10F5F00091014FEA101E4EEA017E10EB0E0041EB26
:10F6000011114FEA102E4EEA016E10EB0E0041EB85
:10F6100011214FEA104E4EEA014E10EB0E0041EB65
:10F620001141401841F100014FEAD00040EA417019
:10F630004FEAD10110EB80054FEA810444EA90744F
:10F6400044EB01046D1944EB0404521BA3414FF039
:10F65000000348BF0A3200D530BD401C41F1000113
:10F6600030BD2DE9F0470D4699469246044600F11B
:10F6700024080168880604D5E06921F010012160A2
:10F6800000E00120A84201DD471B00E00027A1693E
:10F690007A1902EB0900081AA0612078C00602D48A
:10F6A0002046FFF7ADFC002608E0D4E901211AF856
:10F6B00006009047206A401C761C20624E45F4DB11
:10F6C0002078C0060AD52046FFF79AFC06E0D4E968
:10F6D000012130209047206A401C2062381EA7F18B
:10F6E0000107F4DC07E0D4E9012118F80500904790
:10F6F000206A401C2062281EA5F10105F3DC20468B
:10F70000FFF794FC2078000602D50220BDE8F087C0
:10F710000120FBE770472DE9FF4F0C461E464FF0D6
:10F72000FF378BB0D2E90001DDF860800A908A468D
:10F73000C1F30A5505B93D46002108464FF00000C7
:10F74000BAF1000F00F4400005DA00EB80004FF43E
:10F75000400101EA50004FEA9059B9F1010F00DD74
:10F76000B9460A9850EA4A000ED044F61050A5F265
:10F77000FF3545432F14B8F1000F1ED07542291EE6
:10F780001EDDC9F100021CE0B8F1010F4FF00000CE
:10F7900001D0302103E0F24305E02154401CB04287
:10F7A000FBDB30460022002121540B99C1F8088070
:10F7B000C1E900200FB0BDE8F08FBD1B6D1CDEE776
:10F7C0004A4600DA694206A800F04AFA06AB93E816
:10F7D000070003AB83E8070050460A9900F0FBFAE4
:10F7E0008DE80700A0F500501F3800900398002D09
:10F7F00009DD42F21F014A46084403A90390684606
:10F8000000F05AFD08E0A0F500504A461F3803A951
:10F810000390684600F064FD8DE807000004000CCA
:10F8200003D04FF0FF30410800E01046B8F1000F60
:10F8300003D00022009215461EE0751E05D4FFF786
:10F84000CBFE303262556D1EF9D5B3460122084316
:10F8500002D000227F1C04E02078302801D1002251
:10F860007F1E002A099786D01DE0112D07DAFFF7C9
:10F87000B3FE303262556D1C50EA0102F5D10843E7
:10F8800002D00098C8B10EE00021681E05E0235C9C
:10F89000625C63542254401E491C8142F7DBAB4634
:10F8A000A81B401E0990002004F80B000B98099A31
:10F8B000C0F80880C0E9002B7CE711264FF0000853
:10F8C00059E72DE9F04F88460446D21D22F0070182
:10F8D00091B0D1E90001CDE90A0100F037FE0246FE
:10F8E0000B98C00F01D02D2007E02068810701D5BB
:10F8F0002B2002E0202101EAC000032A099001D058
:10F90000072A05DB03464146204600F069F90BE172
:10F910002078800601D5E06900E00620B8F1650F87
:10F92000814606D0B8F1660F18D0B8F1670F70D1D4
:10F9300031E00020B9F1110F009001DB112301E04B
:10F9400009F101030AAA01A90CA8FFF7E4FEDDE909
:10F950000C70002609F10105834647E001204B4663
:10F9600000904FF000470AAA01A90CA8FFF7D3FEA8
:10F97000DDE90DB00C995D46002610B909F10100D2
:10F980000D18B9EB050003D4C0F1FF3609F10105EC
:10F99000A5EB09002BE0B9F1010F01DA4FF00109E5
:10F9A0000020B9F1110F0090484601DD112300E05D
:10F9B00003460AAA01A90CA8FFF7ADFEDDE90C7009
:10F9C0004D4600268346207800070AD4AB4500DA6E
:10F9D0005D4601A8012D04DD411911F8011C3029F3
:10F9E00007D04F4502DA17F1040F04DA01208246EE
:10F9F0000FE06D1EEEE7002F02DCED1B3E4403E03E
:10FA0000781CA84200DD7D1CB81B00F1010A4FF0F4
:10FA100000472078000703D4AA4501DB4FF0FF3AE6
:10FA20000021B7F1004F0DF143088DF8431024D0A9
:10FA300002202B23002F01DA7F422D230A21021EF0
:10FA4000A0F1010000DC5FB197FBF1FC97FBF1F244
:10FA500001FB1C7C17460CF1300C08F801CDEEE7D9
:10FA6000A8F1010003702188090501D5452100E0B6
:10FA70006521A0F1010800F8011C09980FA9A1EB6C
:10FA80000807FF1D00B10120411901EBEA70A169CF
:10FA90003844081A401EA0612078C00602D42046CF
